{
  "contractName": "covidVaccinRegister",
  "abi": [
    {
      "constant": true,
      "inputs": [
        {
          "internalType": "uint256",
          "name": "",
          "type": "uint256"
        }
      ],
      "name": "vaccinationRecords",
      "outputs": [
        {
          "internalType": "string",
          "name": "Name",
          "type": "string"
        },
        {
          "internalType": "string",
          "name": "Surname",
          "type": "string"
        },
        {
          "internalType": "string",
          "name": "VaccinationDate",
          "type": "string"
        },
        {
          "internalType": "string",
          "name": "VaccineName",
          "type": "string"
        },
        {
          "internalType": "string",
          "name": "VaccinationPlace",
          "type": "string"
        }
      ],
      "payable": false,
      "stateMutability": "view",
      "type": "function"
    },
    {
      "constant": false,
      "inputs": [
        {
          "internalType": "string",
          "name": "_Name",
          "type": "string"
        },
        {
          "internalType": "string",
          "name": "_Surname",
          "type": "string"
        },
        {
          "internalType": "string",
          "name": "_VaccinationDate",
          "type": "string"
        },
        {
          "internalType": "string",
          "name": "_VaccineName",
          "type": "string"
        },
        {
          "internalType": "string",
          "name": "_VaccinationPlace",
          "type": "string"
        }
      ],
      "name": "createVaccinationRecord",
      "outputs": [
        {
          "internalType": "uint256",
          "name": "",
          "type": "uint256"
        }
      ],
      "payable": false,
      "stateMutability": "nonpayable",
      "type": "function"
    },
    {
      "constant": true,
      "inputs": [],
      "name": "getNumberOfVaccinations",
      "outputs": [
        {
          "internalType": "uint256",
          "name": "",
          "type": "uint256"
        }
      ],
      "payable": false,
      "stateMutability": "view",
      "type": "function"
    },
    {
      "constant": false,
      "inputs": [
        {
          "internalType": "int256",
          "name": "_ind",
          "type": "int256"
        }
      ],
      "name": "getVaccineRecord",
      "outputs": [
        {
          "components": [
            {
              "internalType": "string",
              "name": "Name",
              "type": "string"
            },
            {
              "internalType": "string",
              "name": "Surname",
              "type": "string"
            },
            {
              "internalType": "string",
              "name": "VaccinationDate",
              "type": "string"
            },
            {
              "internalType": "string",
              "name": "VaccineName",
              "type": "string"
            },
            {
              "internalType": "string",
              "name": "VaccinationPlace",
              "type": "string"
            }
          ],
          "internalType": "struct covidVaccinRegister.VaccinationRecord",
          "name": "",
          "type": "tuple"
        }
      ],
      "payable": false,
      "stateMutability": "nonpayable",
      "type": "function"
    }
  ],
  "bytecode": "0x608060405234801561001057600080fd5b50611015806100206000396000f3fe608060405234801561001057600080fd5b506004361061004c5760003560e01c80630a5fc82714610051578063195812d0146100815780631ea6ddea146100b15780637b05e187146100cf575b600080fd5b61006b60048036036100669190810190610ba2565b610103565b6040516100789190610ee2565b60405180910390f35b61009b60048036036100969190810190610bcb565b6104be565b6040516100a89190610f04565b60405180910390f35b6100b9610713565b6040516100c69190610f04565b60405180910390f35b6100e960048036036100e49190810190610cd0565b61071f565b6040516100fa959493929190610e4c565b60405180910390f35b61010b610a5a565b6000610115610713565b90506000831215801561012757508083125b610166576040517f08c379a000000000000000000000000000000000000000000000000000000000815260040161015d90610ec2565b60405180910390fd5b6000838154811061017357fe5b90600052602060002090600502016040518060a0016040529081600082018054600181600116156101000203166002900480601f0160208091040260200160405190810160405280929190818152602001828054600181600116156101000203166002900480156102255780601f106101fa57610100808354040283529160200191610225565b820191906000526020600020905b81548152906001019060200180831161020857829003601f168201915b50505050508152602001600182018054600181600116156101000203166002900480601f0160208091040260200160405190810160405280929190818152602001828054600181600116156101000203166002900480156102c75780601f1061029c576101008083540402835291602001916102c7565b820191906000526020600020905b8154815290600101906020018083116102aa57829003601f168201915b50505050508152602001600282018054600181600116156101000203166002900480601f0160208091040260200160405190810160405280929190818152602001828054600181600116156101000203166002900480156103695780601f1061033e57610100808354040283529160200191610369565b820191906000526020600020905b81548152906001019060200180831161034c57829003601f168201915b50505050508152602001600382018054600181600116156101000203166002900480601f01602080910402602001604051908101604052809291908181526020018280546001816001161561010002031660029004801561040b5780601f106103e05761010080835404028352916020019161040b565b820191906000526020600020905b8154815290600101906020018083116103ee57829003601f168201915b50505050508152602001600482018054600181600116156101000203166002900480601f0160208091040260200160405190810160405280929190818152602001828054600181600116156101000203166002900480156104ad5780601f10610482576101008083540402835291602001916104ad565b820191906000526020600020905b81548152906001019060200180831161049057829003601f168201915b505050505081525050915050919050565b600080600160006040518060a001604052808f8f8080601f016020809104026020016040519081016040528093929190818152602001838380828437600081840152601f19601f8201169050808301925050505050505081526020018d8d8080601f016020809104026020016040519081016040528093929190818152602001838380828437600081840152601f19601f8201169050808301925050505050505081526020018b8b8080601f016020809104026020016040519081016040528093929190818152602001838380828437600081840152601f19601f82011690508083019250505050505050815260200189898080601f016020809104026020016040519081016040528093929190818152602001838380828437600081840152601f19601f82011690508083019250505050505050815260200187878080601f016020809104026020016040519081016040528093929190818152602001838380828437600081840152601f19601f82011690508083019250505050505050815250908060018154018082558091505090600182039060005260206000209060050201600090919290919091506000820151816000019080519060200190610687929190610a89565b5060208201518160010190805190602001906106a4929190610a89565b5060408201518160020190805190602001906106c1929190610a89565b5060608201518160030190805190602001906106de929190610a89565b5060808201518160040190805190602001906106fb929190610a89565b505050039050809150509a9950505050505050505050565b60008080549050905090565b6000818154811061072c57fe5b9060005260206000209060050201600091509050806000018054600181600116156101000203166002900480601f0160208091040260200160405190810160405280929190818152602001828054600181600116156101000203166002900480156107d85780601f106107ad576101008083540402835291602001916107d8565b820191906000526020600020905b8154815290600101906020018083116107bb57829003601f168201915b505050505090806001018054600181600116156101000203166002900480601f0160208091040260200160405190810160405280929190818152602001828054600181600116156101000203166002900480156108765780601f1061084b57610100808354040283529160200191610876565b820191906000526020600020905b81548152906001019060200180831161085957829003601f168201915b505050505090806002018054600181600116156101000203166002900480601f0160208091040260200160405190810160405280929190818152602001828054600181600116156101000203166002900480156109145780601f106108e957610100808354040283529160200191610914565b820191906000526020600020905b8154815290600101906020018083116108f757829003601f168201915b505050505090806003018054600181600116156101000203166002900480601f0160208091040260200160405190810160405280929190818152602001828054600181600116156101000203166002900480156109b25780601f10610987576101008083540402835291602001916109b2565b820191906000526020600020905b81548152906001019060200180831161099557829003601f168201915b505050505090806004018054600181600116156101000203166002900480601f016020809104026020016040519081016040528092919081815260200182805460018160011615610100020316600290048015610a505780601f10610a2557610100808354040283529160200191610a50565b820191906000526020600020905b815481529060010190602001808311610a3357829003601f168201915b5050505050905085565b6040518060a0016040528060608152602001606081526020016060815260200160608152602001606081525090565b828054600181600116156101000203166002900490600052602060002090601f016020900481019282601f10610aca57805160ff1916838001178555610af8565b82800160010185558215610af8579182015b82811115610af7578251825591602001919060010190610adc565b5b509050610b059190610b09565b5090565b610b2b91905b80821115610b27576000816000905550600101610b0f565b5090565b90565b600081359050610b3d81610fa4565b92915050565b60008083601f840112610b5557600080fd5b8235905067ffffffffffffffff811115610b6e57600080fd5b602083019150836001820283011115610b8657600080fd5b9250929050565b600081359050610b9c81610fbb565b92915050565b600060208284031215610bb457600080fd5b6000610bc284828501610b2e565b91505092915050565b60008060008060008060008060008060a08b8d031215610bea57600080fd5b60008b013567ffffffffffffffff811115610c0457600080fd5b610c108d828e01610b43565b9a509a505060208b013567ffffffffffffffff811115610c2f57600080fd5b610c3b8d828e01610b43565b985098505060408b013567ffffffffffffffff811115610c5a57600080fd5b610c668d828e01610b43565b965096505060608b013567ffffffffffffffff811115610c8557600080fd5b610c918d828e01610b43565b945094505060808b013567ffffffffffffffff811115610cb057600080fd5b610cbc8d828e01610b43565b92509250509295989b9194979a5092959850565b600060208284031215610ce257600080fd5b6000610cf084828501610b8d565b91505092915050565b6000610d0482610f1f565b610d0e8185610f2a565b9350610d1e818560208601610f60565b610d2781610f93565b840191505092915050565b6000610d3d82610f1f565b610d478185610f3b565b9350610d57818560208601610f60565b610d6081610f93565b840191505092915050565b6000610d78601383610f3b565b91507f496e646578206f7574206f662072616e67652e000000000000000000000000006000830152602082019050919050565b600060a0830160008301518482036000860152610dc88282610cf9565b91505060208301518482036020860152610de28282610cf9565b91505060408301518482036040860152610dfc8282610cf9565b91505060608301518482036060860152610e168282610cf9565b91505060808301518482036080860152610e308282610cf9565b9150508091505092915050565b610e4681610f56565b82525050565b600060a0820190508181036000830152610e668188610d32565b90508181036020830152610e7a8187610d32565b90508181036040830152610e8e8186610d32565b90508181036060830152610ea28185610d32565b90508181036080830152610eb68184610d32565b90509695505050505050565b60006020820190508181036000830152610edb81610d6b565b9050919050565b60006020820190508181036000830152610efc8184610dab565b905092915050565b6000602082019050610f196000830184610e3d565b92915050565b600081519050919050565b600082825260208201905092915050565b600082825260208201905092915050565b6000819050919050565b6000819050919050565b60005b83811015610f7e578082015181840152602081019050610f63565b83811115610f8d576000848401525b50505050565b6000601f19601f8301169050919050565b610fad81610f4c565b8114610fb857600080fd5b50565b610fc481610f56565b8114610fcf57600080fd5b5056fea365627a7a72315820bcb443126c0fa049cf8289ecb93ef0e53190bd7f15061cfb6c87864dc43f26426c6578706572696d656e74616cf564736f6c63430005100040",
  "source": "pragma solidity ^0.5.0;\r\npragma experimental ABIEncoderV2;\r\n\r\ncontract covidVaccinRegister{\r\n    struct VaccinationRecord{\r\n        string Name;\r\n        string Surname;\r\n        string VaccinationDate;\r\n        string VaccineName;\r\n        string VaccinationPlace;\r\n    }\r\n\r\n    VaccinationRecord[] public vaccinationRecords;\r\n\r\n    //good to know\r\n    //https://gus-tavo-guim.medium.com/public-vs-external-functions-in-solidity-b46bcf0ba3ac\r\n\r\n    function createVaccinationRecord(string calldata _Name, string calldata _Surname, string calldata _VaccinationDate, string calldata _VaccineName, string calldata _VaccinationPlace) external returns(uint){\r\n        //insert a record into the array\r\n        uint id =vaccinationRecords.push(VaccinationRecord(_Name, _Surname, _VaccinationDate, _VaccineName, _VaccinationPlace))-1;\r\n        //get the position of the record in the array and return the position\r\n        return id;\r\n    }\r\n\r\n    function getNumberOfVaccinations() public view returns(uint) {\r\n        //returning length of vaccinationrecords array\r\n        return vaccinationRecords.length;\r\n    }\r\n\r\n    function getVaccineRecord(int _ind) external returns (VaccinationRecord memory){\r\n        int max=int(getNumberOfVaccinations());\r\n        require(\r\n            (_ind>=0) && (_ind<max),\r\n            \"Index out of range.\"\r\n        );\r\n        return vaccinationRecords[uint(_ind)];\r\n    }\r\n\r\n\r\n}",
  "sourcePath": "C:/Users/sjwu1/Documents/Bootcamp/CVT/contracts/cvt.sol",
  "compiler": {
    "name": "solc",
    "version": "0.5.16+commit.9c3226ce.Emscripten.clang"
  },
  "schemaVersion": "3.3.4",
  "updatedAt": "2021-05-21T14:29:44.107Z",
  "networkType": "ethereum",
  "devdoc": {
    "methods": {}
  },
  "userdoc": {
    "methods": {}
  }
}